S00B00004C45442E7372656344
S11300000C9434000C9446000C9446000C94460066
S11300100C9446000C9446000C9446000C94460044
S11300200C9446000C9446000C9446000C94460034
S11300300C9446000C9446000C9446000C94460024
S11300400C9446000C9446000C9446000C94460014
S11300500C9446000C9446000C9446000C94460004
S11300600C9446000C94460011241FBECFEFD4E03C
S1130070DEBFCDBF21E0A0E0B1E001C01D92A430FD
S1130080B207E1F70E9448000C9468000C94000049
S1130090E0E8F0E0808181688083E1E8F0E080813D
S11300A08B608083219A80E090E0A8ECB2E4809396
S11300B0000190930101A0930201B09303018FEF1B
S11300C090E0909389008093880080E090E0089508
S10700D0F894FFCFCE
S9030000FC
