S0110000536F6674426C696E6B2E7372656387
S11300000C9434000C9446000C9446000C94460066
S11300100C9446000C9446000C9446000C94460044
S11300200C9446000C9446000C9446000C94460034
S11300300C9446000C9446000C9446000C94460024
S11300400C9446000C9446000C9446000C94460014
S11300500C9446000C9446000C9446000C94460004
S11300600C9446000C94460011241FBECFEFD4E03C
S1130070DEBFCDBF21E0A0E0B1E001C01D92A430FD
S1130080B207E1F70E9448000C94D2020C940000DD
S1130090E0E8F0E0808181688083E1E8F0E080813D
S11300A08B608083219AC8E8D0E020E030E040E80B
S11300B05FE36091000170910101809102019091D0
S11300C003010E94D90060930001709301018093A1
S11300D002019093030183EC99E00197F1F700C0CA
S11300E00000C0900001D0900101E0900201F09066
S11300F0030120E030E040EA52E4C701B6010E9467
S1130100600218169CF020E030E048EC52E4C7018D
S1130110B6010E944A0120E030E04FE753E40E9418
S113012065020E94BC0179836883BFCF20E030E080
S113013040E85FE360910001709101018091020148
S1130140909103010E94D800609300017093010113
S1130150809302019093030183EC99E00197F1F7F6
S113016000C00000C0900001D0900101E0900201A5
S1130170F090030120E030E040E251E4C701B60111
S11301800E944501882309F490CF20E030E048EC38
S113019052E4C701B6010E944A0120E030E04FE773
S11301A053E40E9465020E94BC0179836883BECF38
S11301B05058BB27AA270E94F0000C9426020E94E4
S11301C0180238F00E941F0220F039F49F3F19F4FE
S11301D026F40C9415020EF4E095E7FB0C940F0240
S11301E0E92F0E94370258F3BA176207730784078E
S11301F0950720F079F4A6F50C9459020EF4E095D5
S11302000B2EBA2FA02D0B01B90190010C01CA01CC
S1130210A0011124FF27591B99F0593F50F4503E77
S113022068F11A16F040A22F232F342F4427585F69
S1130230F3CF469537952795A795F0405395C9F781
S11302407EF41F16BA0B620B730B840BBAF0915039
S1130250A1F0FF0FBB1F661F771F881FC2F70EC0D8
S1130260BA0F621F731F841F48F4879577956795AB
S1130270B795F7959E3F08F0B0CF9395880F08F097
S11302809927EE0F9795879508950E94EB0108F43E
S113029081E008950E945E010C9426020E941F02D0
S11302A058F00E94180240F029F45F3F29F00C94A2
S11302B00F0251110C945A020C9415020E94370239
S11302C068F39923B1F3552391F3951B550BBB2781
S11302D0AA2762177307840738F09F5F5F4F220FC6
S11302E0331F441FAA1FA9F335D00E2E3AF0E0E8BD
S11302F032D091505040E695001CCAF72BD0FE2F07
S113030029D0660F771F881FBB1F2617370748079A
S1130310AB07B0E809F0BB0B802DBF01FF27935852
S11303205F4F3AF09E3F510578F00C940F020C9405
S11303305A025F3FE4F3983ED4F386957795679528
S1130340B795F7959F5FC9F7880F911D9695879587
S113035097F90895E1E0660F771F881FBB1F6217A6
S113036073078407BA0720F0621B730B840BBA0B64
S1130370EE1F88F7E09508950E943F0288F09F578A
S113038098F0B92F9927B751B0F0E1F0660F771FB5
S1130390881F991F1AF0BA95C9F714C0B13091F0AB
S11303A00E945902B1E008950C945902672F782FE6
S11303B08827B85F39F0B93FCCF386957795679570
S11303C0B395D9F73EF490958095709561957F4FDC
S11303D08F4F9F4F0895990F0008550FAA0BE0E81F
S11303E0FEEF16161706E807F907C0F012161306F3
S11303F0E407F50798F0621B730B840B950B39F433
S11304000A2661F0232B242B252B21F408950A2698
S113041009F4A140A6958FEF811D811D089597F9D8
S11304209F6780E870E060E008959FEF80EC089596
S113043000240A94161617061806090608950024BF
S11304400A9412161306140605060895092E039439
S1130450000C11F4882352F0BB0F40F4BF2B11F4AD
S113046060FF04C06F5F7F4F8F4F9F4F089557FD0C
S11304709058440F551F59F05F3F71F04795880F0E
S113048097FB991F61F09F3F79F0879508951216A5
S113049013061406551FF2CF4695F1DF08C0161651
S11304A017061806991FF1CF869571056105089402
S11304B00895E894BB2766277727CB0197F9089519
S11304C00E94EB0108F48FEF08950E9478020C94C7
S11304D026020E94180238F00E941F0220F0952381
S11304E011F00C940F020C94150211240C945A026E
S11304F00E94370270F3959FC1F3950F50E0551F8A
S1130500629FF001729FBB27F00DB11D639FAA2764
S1130510F00DB11DAA1F649F6627B00DA11D661FB3
S1130520829F2227B00DA11D621F739FB00DA11DD4
S1130530621F839FA00D611D221F749F3327A00D8E
S1130540611D231F849F600D211D822F762F6A2F2A
S113055011249F5750409AF0F1F088234AF0EE0F8F
S1130560FF1FBB1F661F771F881F91505040A9F7BC
S11305709E3F510580F00C940F020C945A025F3F89
S1130580E4F3983ED4F3869577956795B795F795F8
S1130590E7959F5FC1F7FE2B880F911D9695879570
S10B05A097F90895F894FFCFC8
S9030000FC
